{
  "contractName": "NumberGuessingGame",
  "abi": [
    {
      "inputs": [
        {
          "internalType": "address",
          "name": "_tokenAddress",
          "type": "address"
        }
      ],
      "stateMutability": "nonpayable",
      "type": "constructor"
    },
    {
      "anonymous": false,
      "inputs": [
        {
          "indexed": true,
          "internalType": "address",
          "name": "player",
          "type": "address"
        },
        {
          "indexed": false,
          "internalType": "uint256",
          "name": "value",
          "type": "uint256"
        }
      ],
      "name": "Lost",
      "type": "event"
    },
    {
      "anonymous": false,
      "inputs": [
        {
          "indexed": true,
          "internalType": "address",
          "name": "player",
          "type": "address"
        },
        {
          "indexed": false,
          "internalType": "uint256",
          "name": "value",
          "type": "uint256"
        }
      ],
      "name": "Paid",
      "type": "event"
    },
    {
      "anonymous": false,
      "inputs": [
        {
          "indexed": true,
          "internalType": "address",
          "name": "player",
          "type": "address"
        },
        {
          "indexed": false,
          "internalType": "uint256",
          "name": "value",
          "type": "uint256"
        },
        {
          "indexed": false,
          "internalType": "uint256",
          "name": "tokens",
          "type": "uint256"
        }
      ],
      "name": "Won",
      "type": "event"
    },
    {
      "inputs": [],
      "name": "contractValue",
      "outputs": [
        {
          "internalType": "uint256",
          "name": "",
          "type": "uint256"
        }
      ],
      "stateMutability": "view",
      "type": "function"
    },
    {
      "inputs": [],
      "name": "owner",
      "outputs": [
        {
          "internalType": "address",
          "name": "",
          "type": "address"
        }
      ],
      "stateMutability": "view",
      "type": "function"
    },
    {
      "inputs": [],
      "name": "secretNumber",
      "outputs": [
        {
          "internalType": "uint256",
          "name": "",
          "type": "uint256"
        }
      ],
      "stateMutability": "view",
      "type": "function"
    },
    {
      "inputs": [],
      "name": "token",
      "outputs": [
        {
          "internalType": "contract ERC20",
          "name": "",
          "type": "address"
        }
      ],
      "stateMutability": "view",
      "type": "function"
    },
    {
      "inputs": [
        {
          "internalType": "uint256",
          "name": "guess",
          "type": "uint256"
        }
      ],
      "name": "play",
      "outputs": [],
      "stateMutability": "payable",
      "type": "function"
    },
    {
      "inputs": [],
      "name": "addFunds",
      "outputs": [],
      "stateMutability": "payable",
      "type": "function"
    },
    {
      "inputs": [
        {
          "internalType": "uint256",
          "name": "newSecretNumber",
          "type": "uint256"
        }
      ],
      "name": "changeSecretNumber",
      "outputs": [],
      "stateMutability": "nonpayable",
      "type": "function"
    },
    {
      "inputs": [],
      "name": "withdrawFunds",
      "outputs": [],
      "stateMutability": "nonpayable",
      "type": "function"
    }
  ],
  "bytecode": "0x60806040523480156200001157600080fd5b5060405162000efd38038062000efd8339818101604052810190620000379190620000f9565b336000806101000a81548173ffffffffffffffffffffffffffffffffffffffff021916908373ffffffffffffffffffffffffffffffffffffffff1602179055506001606442620000889190620001c6565b6200009491906200012b565b60018190555080600360006101000a81548173ffffffffffffffffffffffffffffffffffffffff021916908373ffffffffffffffffffffffffffffffffffffffff160217905550506200027b565b600081519050620000f38162000261565b92915050565b6000602082840312156200011257620001116200025c565b5b60006200012284828501620000e2565b91505092915050565b60006200013882620001bc565b91506200014583620001bc565b9250827fffffffffffffffffffffffffffffffffffffffffffffffffffffffffffffffff038211156200017d576200017c620001fe565b5b828201905092915050565b600062000195826200019c565b9050919050565b600073ffffffffffffffffffffffffffffffffffffffff82169050919050565b6000819050919050565b6000620001d382620001bc565b9150620001e083620001bc565b925082620001f357620001f26200022d565b5b828206905092915050565b7f4e487b7100000000000000000000000000000000000000000000000000000000600052601160045260246000fd5b7f4e487b7100000000000000000000000000000000000000000000000000000000600052601260045260246000fd5b600080fd5b6200026c8162000188565b81146200027857600080fd5b50565b610c72806200028b6000396000f3fe60806040526004361061007b5760003560e01c8063a26759cb1161004e578063a26759cb14610107578063c36604ed14610111578063e0dec0c01461013c578063fc0c546a146101675761007b565b806315247d3c1461008057806324600fc3146100a95780636898f82b146100c05780638da5cb5b146100dc575b600080fd5b34801561008c57600080fd5b506100a760048036038101906100a291906106dd565b610192565b005b3480156100b557600080fd5b506100be61022a565b005b6100da60048036038101906100d591906106dd565b61030b565b005b3480156100e857600080fd5b506100f161061a565b6040516100fe91906107c3565b60405180910390f35b61010f61063e565b005b34801561011d57600080fd5b50610126610654565b60405161013391906108a2565b60405180910390f35b34801561014857600080fd5b5061015161065a565b60405161015e91906108a2565b60405180910390f35b34801561017357600080fd5b5061017c610660565b6040516101899190610807565b60405180910390f35b60008054906101000a900473ffffffffffffffffffffffffffffffffffffffff1673ffffffffffffffffffffffffffffffffffffffff163373ffffffffffffffffffffffffffffffffffffffff1614610220576040517f08c379a000000000000000000000000000000000000000000000000000000000815260040161021790610882565b60405180910390fd5b8060018190555050565b60008054906101000a900473ffffffffffffffffffffffffffffffffffffffff1673ffffffffffffffffffffffffffffffffffffffff163373ffffffffffffffffffffffffffffffffffffffff16146102b8576040517f08c379a00000000000000000000000000000000000000000000000000000000081526004016102af90610822565b60405180910390fd5b3373ffffffffffffffffffffffffffffffffffffffff166108fc6002549081150290604051600060405180830381858888f19350505050158015610300573d6000803e3d6000fd5b506000600281905550565b66038d7ea4c68000341015610355576040517f08c379a000000000000000000000000000000000000000000000000000000000815260040161034c90610862565b60405180910390fd5b600081118015610366575060648111155b6103a5576040517f08c379a000000000000000000000000000000000000000000000000000000000815260040161039c90610842565b60405180910390fd5b600060649050600154821415610565576000600a60086002546103c8919061097e565b6103d2919061094d565b9050600034826103e291906108f7565b9050816002546103f291906109d8565b600281905550600360009054906101000a900473ffffffffffffffffffffffffffffffffffffffff1673ffffffffffffffffffffffffffffffffffffffff1663a9059cbb33856040518363ffffffff1660e01b81526004016104559291906107de565b602060405180830381600087803b15801561046f57600080fd5b505af1158015610483573d6000803e3d6000fd5b505050506040513d601f19601f820116820180604052508101906104a791906106b0565b503373ffffffffffffffffffffffffffffffffffffffff166108fc829081150290604051600060405180830381858888f193505050501580156104ee573d6000803e3d6000fd5b503373ffffffffffffffffffffffffffffffffffffffff167ffdc49939175858b2bb557093a7d52fa6b6f3aad917d282d61758fab4805f102a82856040516105379291906108bd565b60405180910390a2600160644261054e9190610a8a565b61055891906108f7565b60018190555050506105c8565b3460025461057391906108f7565b6002819055503373ffffffffffffffffffffffffffffffffffffffff167f27c6d7467a9e62ceb584220b29b58a8352f8ca8f743e359e55d7a05bc06d1143346040516105bf91906108a2565b60405180910390a25b3373ffffffffffffffffffffffffffffffffffffffff167f737c69225d647e5994eab1a6c301bf6d9232beb2759ae1e27a8966b4732bc4893460405161060e91906108a2565b60405180910390a25050565b60008054906101000a900473ffffffffffffffffffffffffffffffffffffffff1681565b3460025461064c91906108f7565b600281905550565b60015481565b60025481565b600360009054906101000a900473ffffffffffffffffffffffffffffffffffffffff1681565b60008151905061069581610c0e565b92915050565b6000813590506106aa81610c25565b92915050565b6000602082840312156106c6576106c5610b19565b5b60006106d484828501610686565b91505092915050565b6000602082840312156106f3576106f2610b19565b5b60006107018482850161069b565b91505092915050565b61071381610a0c565b82525050565b61072281610a54565b82525050565b6000610735602a836108e6565b915061074082610b1e565b604082019050919050565b6000610758600d836108e6565b915061076382610b6d565b602082019050919050565b600061077b601d836108e6565b915061078682610b96565b602082019050919050565b600061079e6034836108e6565b91506107a982610bbf565b604082019050919050565b6107bd81610a4a565b82525050565b60006020820190506107d8600083018461070a565b92915050565b60006040820190506107f3600083018561070a565b61080060208301846107b4565b9392505050565b600060208201905061081c6000830184610719565b92915050565b6000602082019050818103600083015261083b81610728565b9050919050565b6000602082019050818103600083015261085b8161074b565b9050919050565b6000602082019050818103600083015261087b8161076e565b9050919050565b6000602082019050818103600083015261089b81610791565b9050919050565b60006020820190506108b760008301846107b4565b92915050565b60006040820190506108d260008301856107b4565b6108df60208301846107b4565b9392505050565b600082825260208201905092915050565b600061090282610a4a565b915061090d83610a4a565b9250827fffffffffffffffffffffffffffffffffffffffffffffffffffffffffffffffff0382111561094257610941610abb565b5b828201905092915050565b600061095882610a4a565b915061096383610a4a565b92508261097357610972610aea565b5b828204905092915050565b600061098982610a4a565b915061099483610a4a565b9250817fffffffffffffffffffffffffffffffffffffffffffffffffffffffffffffffff04831182151516156109cd576109cc610abb565b5b828202905092915050565b60006109e382610a4a565b91506109ee83610a4a565b925082821015610a0157610a00610abb565b5b828203905092915050565b6000610a1782610a2a565b9050919050565b60008115159050919050565b600073ffffffffffffffffffffffffffffffffffffffff82169050919050565b6000819050919050565b6000610a5f82610a66565b9050919050565b6000610a7182610a78565b9050919050565b6000610a8382610a2a565b9050919050565b6000610a9582610a4a565b9150610aa083610a4a565b925082610ab057610aaf610aea565b5b828206905092915050565b7f4e487b7100000000000000000000000000000000000000000000000000000000600052601160045260246000fd5b7f4e487b7100000000000000000000000000000000000000000000000000000000600052601260045260246000fd5b600080fd5b7f4f6e6c792074686520636f6e7472616374206f776e65722063616e207769746860008201527f647261772066756e647300000000000000000000000000000000000000000000602082015250565b7f496e76616c696420677565737300000000000000000000000000000000000000600082015250565b7f4e6f7420656e6f7567682045746865722073656e7420746f20706c6179000000600082015250565b7f4f6e6c792074686520636f6e7472616374206f776e65722063616e206368616e60008201527f67652074686520736563726574206e756d626572000000000000000000000000602082015250565b610c1781610a1e565b8114610c2257600080fd5b50565b610c2e81610a4a565b8114610c3957600080fd5b5056fea2646970667358221220102f7e430b47121a5189c97c8466d603b3433744bf0acc04d8a5284ff4febd2464736f6c63430008070033",
  "immutableReferences": {},
  "source": "// SPDX-License-Identifier: MIT\n\npragma solidity ^0.8.0;\n\nimport \"@openzeppelin/contracts/token/ERC20/ERC20.sol\";\n\ncontract NumberGuessingGame {\n    address public owner;\n    uint256 public secretNumber;\n    uint256 public contractValue;\n    ERC20 public token;\n\n    event Paid(address indexed player, uint256 value);\n    event Won(address indexed player, uint256 value, uint256 tokens);\n    event Lost(address indexed player, uint256 value);\n\n    constructor(address _tokenAddress) {\n        owner = msg.sender;\n        secretNumber = block.timestamp % 100 + 1;\n        token = ERC20(_tokenAddress);\n    }\n\n    function play(uint256 guess) public payable {\n        require(msg.value >= 0.001 ether, \"Not enough Ether sent to play\");\n        require(guess > 0 && guess <= 100, \"Invalid guess\");\n\n        uint256 tokensToAward = 100;\n\n        if (guess == secretNumber) {\n            uint256 payout = contractValue * 8 / 10;\n            uint256 totalPayout = payout + msg.value;\n            contractValue = contractValue - payout;\n            token.transfer(msg.sender, tokensToAward);\n            payable(msg.sender).transfer(totalPayout);\n            emit Won(msg.sender, totalPayout, tokensToAward);\n            secretNumber = block.timestamp % 100 + 1;\n        } else {\n            contractValue = contractValue + msg.value;\n            emit Lost(msg.sender, msg.value);\n        }\n\n        emit Paid(msg.sender, msg.value);\n    }\n\n    function addFunds() public payable {\n        contractValue = contractValue + msg.value;\n    }\n\n    function changeSecretNumber(uint256 newSecretNumber) public {\n        require(msg.sender == owner, \"Only the contract owner can change the secret number\");\n        secretNumber = newSecretNumber;\n    }\n\n    function withdrawFunds() public {\n        require(msg.sender == owner, \"Only the contract owner can withdraw funds\");\n        payable(msg.sender).transfer(contractValue);\n        contractValue = 0;\n    }\n}\n",
  "sourcePath": "/Users/dennis/Code/number-guesser/contracts/src/game.sol",
  "compiler": {
    "name": "solc",
    "version": "0.8.7+commit.e28d00a7.Emscripten.clang"
  },
  "schemaVersion": "3.4.13",
  "updatedAt": "2023-03-19T10:58:23.642Z",
  "devdoc": {
    "kind": "dev",
    "methods": {},
    "version": 1
  },
  "userdoc": {
    "kind": "user",
    "methods": {},
    "version": 1
  }
}