{
  "contractName": "LuckyGuessToken",
  "abi": [
    {
      "inputs": [],
      "stateMutability": "nonpayable",
      "type": "constructor"
    },
    {
      "anonymous": false,
      "inputs": [
        {
          "indexed": true,
          "internalType": "address",
          "name": "owner",
          "type": "address"
        },
        {
          "indexed": true,
          "internalType": "address",
          "name": "spender",
          "type": "address"
        },
        {
          "indexed": false,
          "internalType": "uint256",
          "name": "value",
          "type": "uint256"
        }
      ],
      "name": "Approval",
      "type": "event"
    },
    {
      "anonymous": false,
      "inputs": [
        {
          "indexed": false,
          "internalType": "address",
          "name": "account",
          "type": "address"
        }
      ],
      "name": "Paused",
      "type": "event"
    },
    {
      "anonymous": false,
      "inputs": [
        {
          "indexed": true,
          "internalType": "bytes32",
          "name": "role",
          "type": "bytes32"
        },
        {
          "indexed": true,
          "internalType": "bytes32",
          "name": "previousAdminRole",
          "type": "bytes32"
        },
        {
          "indexed": true,
          "internalType": "bytes32",
          "name": "newAdminRole",
          "type": "bytes32"
        }
      ],
      "name": "RoleAdminChanged",
      "type": "event"
    },
    {
      "anonymous": false,
      "inputs": [
        {
          "indexed": true,
          "internalType": "bytes32",
          "name": "role",
          "type": "bytes32"
        },
        {
          "indexed": true,
          "internalType": "address",
          "name": "account",
          "type": "address"
        },
        {
          "indexed": true,
          "internalType": "address",
          "name": "sender",
          "type": "address"
        }
      ],
      "name": "RoleGranted",
      "type": "event"
    },
    {
      "anonymous": false,
      "inputs": [
        {
          "indexed": true,
          "internalType": "bytes32",
          "name": "role",
          "type": "bytes32"
        },
        {
          "indexed": true,
          "internalType": "address",
          "name": "account",
          "type": "address"
        },
        {
          "indexed": true,
          "internalType": "address",
          "name": "sender",
          "type": "address"
        }
      ],
      "name": "RoleRevoked",
      "type": "event"
    },
    {
      "anonymous": false,
      "inputs": [
        {
          "indexed": true,
          "internalType": "address",
          "name": "from",
          "type": "address"
        },
        {
          "indexed": true,
          "internalType": "address",
          "name": "to",
          "type": "address"
        },
        {
          "indexed": false,
          "internalType": "uint256",
          "name": "value",
          "type": "uint256"
        }
      ],
      "name": "Transfer",
      "type": "event"
    },
    {
      "anonymous": false,
      "inputs": [
        {
          "indexed": false,
          "internalType": "address",
          "name": "account",
          "type": "address"
        }
      ],
      "name": "Unpaused",
      "type": "event"
    },
    {
      "inputs": [],
      "name": "DEFAULT_ADMIN_ROLE",
      "outputs": [
        {
          "internalType": "bytes32",
          "name": "",
          "type": "bytes32"
        }
      ],
      "stateMutability": "view",
      "type": "function"
    },
    {
      "inputs": [],
      "name": "MINTER_ROLE",
      "outputs": [
        {
          "internalType": "bytes32",
          "name": "",
          "type": "bytes32"
        }
      ],
      "stateMutability": "view",
      "type": "function"
    },
    {
      "inputs": [
        {
          "internalType": "address",
          "name": "owner",
          "type": "address"
        },
        {
          "internalType": "address",
          "name": "spender",
          "type": "address"
        }
      ],
      "name": "allowance",
      "outputs": [
        {
          "internalType": "uint256",
          "name": "",
          "type": "uint256"
        }
      ],
      "stateMutability": "view",
      "type": "function"
    },
    {
      "inputs": [
        {
          "internalType": "address",
          "name": "spender",
          "type": "address"
        },
        {
          "internalType": "uint256",
          "name": "amount",
          "type": "uint256"
        }
      ],
      "name": "approve",
      "outputs": [
        {
          "internalType": "bool",
          "name": "",
          "type": "bool"
        }
      ],
      "stateMutability": "nonpayable",
      "type": "function"
    },
    {
      "inputs": [
        {
          "internalType": "address",
          "name": "account",
          "type": "address"
        }
      ],
      "name": "balanceOf",
      "outputs": [
        {
          "internalType": "uint256",
          "name": "",
          "type": "uint256"
        }
      ],
      "stateMutability": "view",
      "type": "function"
    },
    {
      "inputs": [
        {
          "internalType": "uint256",
          "name": "amount",
          "type": "uint256"
        }
      ],
      "name": "burn",
      "outputs": [],
      "stateMutability": "nonpayable",
      "type": "function"
    },
    {
      "inputs": [
        {
          "internalType": "address",
          "name": "account",
          "type": "address"
        },
        {
          "internalType": "uint256",
          "name": "amount",
          "type": "uint256"
        }
      ],
      "name": "burnFrom",
      "outputs": [],
      "stateMutability": "nonpayable",
      "type": "function"
    },
    {
      "inputs": [],
      "name": "cap",
      "outputs": [
        {
          "internalType": "uint256",
          "name": "",
          "type": "uint256"
        }
      ],
      "stateMutability": "view",
      "type": "function"
    },
    {
      "inputs": [],
      "name": "decimals",
      "outputs": [
        {
          "internalType": "uint8",
          "name": "",
          "type": "uint8"
        }
      ],
      "stateMutability": "view",
      "type": "function"
    },
    {
      "inputs": [
        {
          "internalType": "address",
          "name": "spender",
          "type": "address"
        },
        {
          "internalType": "uint256",
          "name": "subtractedValue",
          "type": "uint256"
        }
      ],
      "name": "decreaseAllowance",
      "outputs": [
        {
          "internalType": "bool",
          "name": "",
          "type": "bool"
        }
      ],
      "stateMutability": "nonpayable",
      "type": "function"
    },
    {
      "inputs": [
        {
          "internalType": "bytes32",
          "name": "role",
          "type": "bytes32"
        }
      ],
      "name": "getRoleAdmin",
      "outputs": [
        {
          "internalType": "bytes32",
          "name": "",
          "type": "bytes32"
        }
      ],
      "stateMutability": "view",
      "type": "function"
    },
    {
      "inputs": [
        {
          "internalType": "bytes32",
          "name": "role",
          "type": "bytes32"
        },
        {
          "internalType": "uint256",
          "name": "index",
          "type": "uint256"
        }
      ],
      "name": "getRoleMember",
      "outputs": [
        {
          "internalType": "address",
          "name": "",
          "type": "address"
        }
      ],
      "stateMutability": "view",
      "type": "function"
    },
    {
      "inputs": [
        {
          "internalType": "bytes32",
          "name": "role",
          "type": "bytes32"
        }
      ],
      "name": "getRoleMemberCount",
      "outputs": [
        {
          "internalType": "uint256",
          "name": "",
          "type": "uint256"
        }
      ],
      "stateMutability": "view",
      "type": "function"
    },
    {
      "inputs": [
        {
          "internalType": "bytes32",
          "name": "role",
          "type": "bytes32"
        },
        {
          "internalType": "address",
          "name": "account",
          "type": "address"
        }
      ],
      "name": "grantRole",
      "outputs": [],
      "stateMutability": "nonpayable",
      "type": "function"
    },
    {
      "inputs": [
        {
          "internalType": "bytes32",
          "name": "role",
          "type": "bytes32"
        },
        {
          "internalType": "address",
          "name": "account",
          "type": "address"
        }
      ],
      "name": "hasRole",
      "outputs": [
        {
          "internalType": "bool",
          "name": "",
          "type": "bool"
        }
      ],
      "stateMutability": "view",
      "type": "function"
    },
    {
      "inputs": [
        {
          "internalType": "address",
          "name": "spender",
          "type": "address"
        },
        {
          "internalType": "uint256",
          "name": "addedValue",
          "type": "uint256"
        }
      ],
      "name": "increaseAllowance",
      "outputs": [
        {
          "internalType": "bool",
          "name": "",
          "type": "bool"
        }
      ],
      "stateMutability": "nonpayable",
      "type": "function"
    },
    {
      "inputs": [],
      "name": "name",
      "outputs": [
        {
          "internalType": "string",
          "name": "",
          "type": "string"
        }
      ],
      "stateMutability": "view",
      "type": "function"
    },
    {
      "inputs": [],
      "name": "paused",
      "outputs": [
        {
          "internalType": "bool",
          "name": "",
          "type": "bool"
        }
      ],
      "stateMutability": "view",
      "type": "function"
    },
    {
      "inputs": [
        {
          "internalType": "bytes32",
          "name": "role",
          "type": "bytes32"
        },
        {
          "internalType": "address",
          "name": "account",
          "type": "address"
        }
      ],
      "name": "renounceRole",
      "outputs": [],
      "stateMutability": "nonpayable",
      "type": "function"
    },
    {
      "inputs": [
        {
          "internalType": "bytes32",
          "name": "role",
          "type": "bytes32"
        },
        {
          "internalType": "address",
          "name": "account",
          "type": "address"
        }
      ],
      "name": "revokeRole",
      "outputs": [],
      "stateMutability": "nonpayable",
      "type": "function"
    },
    {
      "inputs": [
        {
          "internalType": "bytes4",
          "name": "interfaceId",
          "type": "bytes4"
        }
      ],
      "name": "supportsInterface",
      "outputs": [
        {
          "internalType": "bool",
          "name": "",
          "type": "bool"
        }
      ],
      "stateMutability": "view",
      "type": "function"
    },
    {
      "inputs": [],
      "name": "symbol",
      "outputs": [
        {
          "internalType": "string",
          "name": "",
          "type": "string"
        }
      ],
      "stateMutability": "view",
      "type": "function"
    },
    {
      "inputs": [],
      "name": "totalSupply",
      "outputs": [
        {
          "internalType": "uint256",
          "name": "",
          "type": "uint256"
        }
      ],
      "stateMutability": "view",
      "type": "function"
    },
    {
      "inputs": [
        {
          "internalType": "address",
          "name": "to",
          "type": "address"
        },
        {
          "internalType": "uint256",
          "name": "amount",
          "type": "uint256"
        }
      ],
      "name": "transfer",
      "outputs": [
        {
          "internalType": "bool",
          "name": "",
          "type": "bool"
        }
      ],
      "stateMutability": "nonpayable",
      "type": "function"
    },
    {
      "inputs": [
        {
          "internalType": "address",
          "name": "from",
          "type": "address"
        },
        {
          "internalType": "address",
          "name": "to",
          "type": "address"
        },
        {
          "internalType": "uint256",
          "name": "amount",
          "type": "uint256"
        }
      ],
      "name": "transferFrom",
      "outputs": [
        {
          "internalType": "bool",
          "name": "",
          "type": "bool"
        }
      ],
      "stateMutability": "nonpayable",
      "type": "function"
    },
    {
      "inputs": [
        {
          "internalType": "address",
          "name": "to",
          "type": "address"
        },
        {
          "internalType": "uint256",
          "name": "amount",
          "type": "uint256"
        }
      ],
      "name": "mint",
      "outputs": [],
      "stateMutability": "nonpayable",
      "type": "function"
    }
  ],
  "bytecode": "0x60a06040523480156200001157600080fd5b50620000226200019760201b60201c565b600a6200003091906200059b565b620f4240620000409190620006d8565b6040518060400160405280600f81526020017f4c75636b794775657373546f6b656e00000000000000000000000000000000008152506040518060400160405280600381526020017f4c475400000000000000000000000000000000000000000000000000000000008152508160059080519060200190620000c492919062000436565b508060069080519060200190620000dd92919062000436565b5050506000600760006101000a81548160ff0219169083151502179055506000811162000141576040517f08c379a000000000000000000000000000000000000000000000000000000000815260040162000138906200050d565b60405180910390fd5b8060808181525050506200015f6000801b33620001a060201b60201c565b620001917f9f2df0fed2c77648de5860a4cc508cd0818c85b8b8a1ab4ceeef8d981c8956a633620001a060201b60201c565b6200081a565b60006012905090565b620001b28282620001b660201b60201c565b5050565b620001cd8282620001fe60201b62000b871760201c565b620001f98160016000858152602001908152602001600020620002ef60201b62000c671790919060201c565b505050565b6200021082826200032760201b60201c565b620002eb57600160008084815260200190815260200160002060000160008373ffffffffffffffffffffffffffffffffffffffff1673ffffffffffffffffffffffffffffffffffffffff16815260200190815260200160002060006101000a81548160ff021916908315150217905550620002906200039160201b60201c565b73ffffffffffffffffffffffffffffffffffffffff168173ffffffffffffffffffffffffffffffffffffffff16837f2f8788117e7eff1d82e926ec794901d17c78024a50270940304540a733656f0d60405160405180910390a45b5050565b60006200031f836000018373ffffffffffffffffffffffffffffffffffffffff1660001b6200039960201b60201c565b905092915050565b600080600084815260200190815260200160002060000160008373ffffffffffffffffffffffffffffffffffffffff1673ffffffffffffffffffffffffffffffffffffffff16815260200190815260200160002060009054906101000a900460ff16905092915050565b600033905090565b6000620003ad83836200041360201b60201c565b620004085782600001829080600181540180825580915050600190039060005260206000200160009091909190915055826000018054905083600101600084815260200190815260200160002081905550600190506200040d565b600090505b92915050565b600080836001016000848152602001908152602001600020541415905092915050565b828054620004449062000750565b90600052602060002090601f016020900481019282620004685760008555620004b4565b82601f106200048357805160ff1916838001178555620004b4565b82800160010185558215620004b4579182015b82811115620004b357825182559160200191906001019062000496565b5b509050620004c39190620004c7565b5090565b5b80821115620004e2576000816000905550600101620004c8565b5090565b6000620004f56015836200052f565b91506200050282620007f1565b602082019050919050565b600060208201905081810360008301526200052881620004e6565b9050919050565b600082825260208201905092915050565b6000808291508390505b600185111562000592578086048111156200056a576200056962000786565b5b60018516156200057a5780820291505b80810290506200058a85620007e4565b94506200054a565b94509492505050565b6000620005a88262000739565b9150620005b58362000743565b9250620005e47fffffffffffffffffffffffffffffffffffffffffffffffffffffffffffffffff8484620005ec565b905092915050565b600082620005fe5760019050620006d1565b816200060e5760009050620006d1565b8160018114620006275760028114620006325762000668565b6001915050620006d1565b60ff84111562000647576200064662000786565b5b8360020a91508482111562000661576200066062000786565b5b50620006d1565b5060208310610133831016604e8410600b8410161715620006a25782820a9050838111156200069c576200069b62000786565b5b620006d1565b620006b1848484600162000540565b92509050818404811115620006cb57620006ca62000786565b5b81810290505b9392505050565b6000620006e58262000739565b9150620006f28362000739565b9250817fffffffffffffffffffffffffffffffffffffffffffffffffffffffffffffffff04831182151516156200072e576200072d62000786565b5b828202905092915050565b6000819050919050565b600060ff82169050919050565b600060028204905060018216806200076957607f821691505b6020821081141562000780576200077f620007b5565b5b50919050565b7f4e487b7100000000000000000000000000000000000000000000000000000000600052601160045260246000fd5b7f4e487b7100000000000000000000000000000000000000000000000000000000600052602260045260246000fd5b60008160011c9050919050565b7f45524332304361707065643a2063617020697320300000000000000000000000600082015250565b608051612d596200083660003960006107200152612d596000f3fe608060405234801561001057600080fd5b506004361061018e5760003560e01c80635c975abb116100de578063a217fddf11610097578063ca15c87311610071578063ca15c873146104d1578063d539139314610501578063d547741f1461051f578063dd62ed3e1461053b5761018e565b8063a217fddf14610453578063a457c2d714610471578063a9059cbb146104a15761018e565b80635c975abb1461036b57806370a082311461038957806379cc6790146103b95780639010d07c146103d557806391d148541461040557806395d89b41146104355761018e565b80632f2ff15d1161014b57806336568abe1161012557806336568abe146102e7578063395093511461030357806340c10f191461033357806342966c681461034f5761018e565b80632f2ff15d1461028f578063313ce567146102ab578063355274ea146102c95761018e565b806301ffc9a71461019357806306fdde03146101c3578063095ea7b3146101e157806318160ddd1461021157806323b872dd1461022f578063248a9ca31461025f575b600080fd5b6101ad60048036038101906101a89190611f47565b61056b565b6040516101ba91906122fe565b60405180910390f35b6101cb6105e5565b6040516101d89190612334565b60405180910390f35b6101fb60048036038101906101f69190611e5a565b610677565b60405161020891906122fe565b60405180910390f35b61021961069a565b6040516102269190612536565b60405180910390f35b61024960048036038101906102449190611e07565b6106a4565b60405161025691906122fe565b60405180910390f35b61027960048036038101906102749190611e9a565b6106d3565b6040516102869190612319565b60405180910390f35b6102a960048036038101906102a49190611ec7565b6106f2565b005b6102b3610713565b6040516102c09190612551565b60405180910390f35b6102d161071c565b6040516102de9190612536565b60405180910390f35b61030160048036038101906102fc9190611ec7565b610744565b005b61031d60048036038101906103189190611e5a565b6107c7565b60405161032a91906122fe565b60405180910390f35b61034d60048036038101906103489190611e5a565b6107fe565b005b61036960048036038101906103649190611f74565b610837565b005b61037361084b565b60405161038091906122fe565b60405180910390f35b6103a3600480360381019061039e9190611d9a565b610862565b6040516103b09190612536565b60405180910390f35b6103d360048036038101906103ce9190611e5a565b6108ab565b005b6103ef60048036038101906103ea9190611f07565b6108cb565b6040516103fc91906122e3565b60405180910390f35b61041f600480360381019061041a9190611ec7565b6108fa565b60405161042c91906122fe565b60405180910390f35b61043d610964565b60405161044a9190612334565b60405180910390f35b61045b6109f6565b6040516104689190612319565b60405180910390f35b61048b60048036038101906104869190611e5a565b6109fd565b60405161049891906122fe565b60405180910390f35b6104bb60048036038101906104b69190611e5a565b610a74565b6040516104c891906122fe565b60405180910390f35b6104eb60048036038101906104e69190611e9a565b610a97565b6040516104f89190612536565b60405180910390f35b610509610abb565b6040516105169190612319565b60405180910390f35b61053960048036038101906105349190611ec7565b610adf565b005b61055560048036038101906105509190611dc7565b610b00565b6040516105629190612536565b60405180910390f35b60007f5a05180f000000000000000000000000000000000000000000000000000000007bffffffffffffffffffffffffffffffffffffffffffffffffffffffff1916827bffffffffffffffffffffffffffffffffffffffffffffffffffffffff191614806105de57506105dd82610c97565b5b9050919050565b6060600580546105f49061275f565b80601f01602080910402602001604051908101604052809291908181526020018280546106209061275f565b801561066d5780601f106106425761010080835404028352916020019161066d565b820191906000526020600020905b81548152906001019060200180831161065057829003601f168201915b5050505050905090565b600080610682610d11565b905061068f818585610d19565b600191505092915050565b6000600454905090565b6000806106af610d11565b90506106bc858285610ee4565b6106c7858585610f70565b60019150509392505050565b6000806000838152602001908152602001600020600101549050919050565b6106fb826106d3565b610704816111eb565b61070e83836111ff565b505050565b60006012905090565b60007f0000000000000000000000000000000000000000000000000000000000000000905090565b61074c610d11565b73ffffffffffffffffffffffffffffffffffffffff168173ffffffffffffffffffffffffffffffffffffffff16146107b9576040517f08c379a00000000000000000000000000000000000000000000000000000000081526004016107b0906124d6565b60405180910390fd5b6107c38282611233565b5050565b6000806107d2610d11565b90506107f38185856107e48589610b00565b6107ee9190612593565b610d19565b600191505092915050565b7f9f2df0fed2c77648de5860a4cc508cd0818c85b8b8a1ab4ceeef8d981c8956a6610828816111eb565b6108328383611267565b505050565b610848610842610d11565b82611275565b50565b6000600760009054906101000a900460ff16905090565b6000600260008373ffffffffffffffffffffffffffffffffffffffff1673ffffffffffffffffffffffffffffffffffffffff168152602001908152602001600020549050919050565b6108bd826108b7610d11565b83610ee4565b6108c78282611275565b5050565b60006108f2826001600086815260200190815260200160002061144590919063ffffffff16565b905092915050565b600080600084815260200190815260200160002060000160008373ffffffffffffffffffffffffffffffffffffffff1673ffffffffffffffffffffffffffffffffffffffff16815260200190815260200160002060009054906101000a900460ff16905092915050565b6060600680546109739061275f565b80601f016020809104026020016040519081016040528092919081815260200182805461099f9061275f565b80156109ec5780601f106109c1576101008083540402835291602001916109ec565b820191906000526020600020905b8154815290600101906020018083116109cf57829003601f168201915b5050505050905090565b6000801b81565b600080610a08610d11565b90506000610a168286610b00565b905083811015610a5b576040517f08c379a0000000000000000000000000000000000000000000000000000000008152600401610a52906124b6565b60405180910390fd5b610a688286868403610d19565b60019250505092915050565b600080610a7f610d11565b9050610a8c818585610f70565b600191505092915050565b6000610ab46001600084815260200190815260200160002061145f565b9050919050565b7f9f2df0fed2c77648de5860a4cc508cd0818c85b8b8a1ab4ceeef8d981c8956a681565b610ae8826106d3565b610af1816111eb565b610afb8383611233565b505050565b6000600360008473ffffffffffffffffffffffffffffffffffffffff1673ffffffffffffffffffffffffffffffffffffffff16815260200190815260200160002060008373ffffffffffffffffffffffffffffffffffffffff1673ffffffffffffffffffffffffffffffffffffffff16815260200190815260200160002054905092915050565b610b9182826108fa565b610c6357600160008084815260200190815260200160002060000160008373ffffffffffffffffffffffffffffffffffffffff1673ffffffffffffffffffffffffffffffffffffffff16815260200190815260200160002060006101000a81548160ff021916908315150217905550610c08610d11565b73ffffffffffffffffffffffffffffffffffffffff168173ffffffffffffffffffffffffffffffffffffffff16837f2f8788117e7eff1d82e926ec794901d17c78024a50270940304540a733656f0d60405160405180910390a45b5050565b6000610c8f836000018373ffffffffffffffffffffffffffffffffffffffff1660001b611474565b905092915050565b60007f7965db0b000000000000000000000000000000000000000000000000000000007bffffffffffffffffffffffffffffffffffffffffffffffffffffffff1916827bffffffffffffffffffffffffffffffffffffffffffffffffffffffff19161480610d0a5750610d09826114e4565b5b9050919050565b600033905090565b600073ffffffffffffffffffffffffffffffffffffffff168373ffffffffffffffffffffffffffffffffffffffff161415610d89576040517f08c379a0000000000000000000000000000000000000000000000000000000008152600401610d8090612496565b60405180910390fd5b600073ffffffffffffffffffffffffffffffffffffffff168273ffffffffffffffffffffffffffffffffffffffff161415610df9576040517f08c379a0000000000000000000000000000000000000000000000000000000008152600401610df0906123b6565b60405180910390fd5b80600360008573ffffffffffffffffffffffffffffffffffffffff1673ffffffffffffffffffffffffffffffffffffffff16815260200190815260200160002060008473ffffffffffffffffffffffffffffffffffffffff1673ffffffffffffffffffffffffffffffffffffffff168152602001908152602001600020819055508173ffffffffffffffffffffffffffffffffffffffff168373ffffffffffffffffffffffffffffffffffffffff167f8c5be1e5ebec7d5bd14f71427d1e84f3dd0314c0f7b2291e5b200ac8c7c3b92583604051610ed79190612536565b60405180910390a3505050565b6000610ef08484610b00565b90507fffffffffffffffffffffffffffffffffffffffffffffffffffffffffffffffff8114610f6a5781811015610f5c576040517f08c379a0000000000000000000000000000000000000000000000000000000008152600401610f53906123d6565b60405180910390fd5b610f698484848403610d19565b5b50505050565b600073ffffffffffffffffffffffffffffffffffffffff168373ffffffffffffffffffffffffffffffffffffffff161415610fe0576040517f08c379a0000000000000000000000000000000000000000000000000000000008152600401610fd790612456565b60405180910390fd5b600073ffffffffffffffffffffffffffffffffffffffff168273ffffffffffffffffffffffffffffffffffffffff161415611050576040517f08c379a000000000000000000000000000000000000000000000000000000000815260040161104790612376565b60405180910390fd5b61105b83838361154e565b6000600260008573ffffffffffffffffffffffffffffffffffffffff1673ffffffffffffffffffffffffffffffffffffffff168152602001908152602001600020549050818110156110e2576040517f08c379a00000000000000000000000000000000000000000000000000000000081526004016110d9906123f6565b60405180910390fd5b818103600260008673ffffffffffffffffffffffffffffffffffffffff1673ffffffffffffffffffffffffffffffffffffffff1681526020019081526020016000208190555081600260008573ffffffffffffffffffffffffffffffffffffffff1673ffffffffffffffffffffffffffffffffffffffff168152602001908152602001600020600082825401925050819055508273ffffffffffffffffffffffffffffffffffffffff168473ffffffffffffffffffffffffffffffffffffffff167fddf252ad1be2c89b69c2b068fc378daa952ba7f163c4a11628f55a4df523b3ef846040516111d29190612536565b60405180910390a36111e5848484611566565b50505050565b6111fc816111f7610d11565b61156b565b50565b6112098282610b87565b61122e8160016000858152602001908152602001600020610c6790919063ffffffff16565b505050565b61123d82826115f0565b61126281600160008581526020019081526020016000206116d190919063ffffffff16565b505050565b6112718282611701565b5050565b600073ffffffffffffffffffffffffffffffffffffffff168273ffffffffffffffffffffffffffffffffffffffff1614156112e5576040517f08c379a00000000000000000000000000000000000000000000000000000000081526004016112dc90612436565b60405180910390fd5b6112f18260008361154e565b6000600260008473ffffffffffffffffffffffffffffffffffffffff1673ffffffffffffffffffffffffffffffffffffffff16815260200190815260200160002054905081811015611378576040517f08c379a000000000000000000000000000000000000000000000000000000000815260040161136f90612396565b60405180910390fd5b818103600260008573ffffffffffffffffffffffffffffffffffffffff1673ffffffffffffffffffffffffffffffffffffffff1681526020019081526020016000208190555081600460008282540392505081905550600073ffffffffffffffffffffffffffffffffffffffff168373ffffffffffffffffffffffffffffffffffffffff167fddf252ad1be2c89b69c2b068fc378daa952ba7f163c4a11628f55a4df523b3ef8460405161142c9190612536565b60405180910390a361144083600084611566565b505050565b6000611454836000018361176b565b60001c905092915050565b600061146d82600001611796565b9050919050565b600061148083836117a7565b6114d95782600001829080600181540180825580915050600190039060005260206000200160009091909190915055826000018054905083600101600084815260200190815260200160002081905550600190506114de565b600090505b92915050565b60007f01ffc9a7000000000000000000000000000000000000000000000000000000007bffffffffffffffffffffffffffffffffffffffffffffffffffffffff1916827bffffffffffffffffffffffffffffffffffffffffffffffffffffffff1916149050919050565b6115566117ca565b611561838383611814565b505050565b505050565b61157582826108fa565b6115ec576115828161186c565b6115908360001c6020611899565b6040516020016115a19291906122a9565b6040516020818303038152906040526040517f08c379a00000000000000000000000000000000000000000000000000000000081526004016115e39190612334565b60405180910390fd5b5050565b6115fa82826108fa565b156116cd57600080600084815260200190815260200160002060000160008373ffffffffffffffffffffffffffffffffffffffff1673ffffffffffffffffffffffffffffffffffffffff16815260200190815260200160002060006101000a81548160ff021916908315150217905550611672610d11565b73ffffffffffffffffffffffffffffffffffffffff168173ffffffffffffffffffffffffffffffffffffffff16837ff6391f5c32d9c69d2a47ea670b442974b53935d1edc7fd64eb21e047a839171b60405160405180910390a45b5050565b60006116f9836000018373ffffffffffffffffffffffffffffffffffffffff1660001b611ad5565b905092915050565b61170961071c565b8161171261069a565b61171c9190612593565b111561175d576040517f08c379a000000000000000000000000000000000000000000000000000000000815260040161175490612476565b60405180910390fd5b6117678282611be9565b5050565b60008260000182815481106117835761178261281e565b5b9060005260206000200154905092915050565b600081600001805490509050919050565b600080836001016000848152602001908152602001600020541415905092915050565b6117d261084b565b15611812576040517f08c379a000000000000000000000000000000000000000000000000000000000815260040161180990612416565b60405180910390fd5b565b61181f838383611d41565b61182761084b565b15611867576040517f08c379a000000000000000000000000000000000000000000000000000000000815260040161185e90612516565b60405180910390fd5b505050565b60606118928273ffffffffffffffffffffffffffffffffffffffff16601460ff16611899565b9050919050565b6060600060028360026118ac91906125e9565b6118b69190612593565b67ffffffffffffffff8111156118cf576118ce61284d565b5b6040519080825280601f01601f1916602001820160405280156119015781602001600182028036833780820191505090505b5090507f3000000000000000000000000000000000000000000000000000000000000000816000815181106119395761193861281e565b5b60200101907effffffffffffffffffffffffffffffffffffffffffffffffffffffffffffff1916908160001a9053507f78000000000000000000000000000000000000000000000000000000000000008160018151811061199d5761199c61281e565b5b60200101907effffffffffffffffffffffffffffffffffffffffffffffffffffffffffffff1916908160001a905350600060018460026119dd91906125e9565b6119e79190612593565b90505b6001811115611a87577f3031323334353637383961626364656600000000000000000000000000000000600f861660108110611a2957611a2861281e565b5b1a60f81b828281518110611a4057611a3f61281e565b5b60200101907effffffffffffffffffffffffffffffffffffffffffffffffffffffffffffff1916908160001a905350600485901c945080611a8090612735565b90506119ea565b5060008414611acb576040517f08c379a0000000000000000000000000000000000000000000000000000000008152600401611ac290612356565b60405180910390fd5b8091505092915050565b60008083600101600084815260200190815260200160002054905060008114611bdd576000600182611b079190612643565b9050600060018660000180549050611b1f9190612643565b9050818114611b8e576000866000018281548110611b4057611b3f61281e565b5b9060005260206000200154905080876000018481548110611b6457611b6361281e565b5b90600052602060002001819055508387600101600083815260200190815260200160002081905550505b85600001805480611ba257611ba16127ef565b5b600190038181906000526020600020016000905590558560010160008681526020019081526020016000206000905560019350505050611be3565b60009150505b92915050565b600073ffffffffffffffffffffffffffffffffffffffff168273ffffffffffffffffffffffffffffffffffffffff161415611c59576040517f08c379a0000000000000000000000000000000000000000000000000000000008152600401611c50906124f6565b60405180910390fd5b611c656000838361154e565b8060046000828254611c779190612593565b9250508190555080600260008473ffffffffffffffffffffffffffffffffffffffff1673ffffffffffffffffffffffffffffffffffffffff168152602001908152602001600020600082825401925050819055508173ffffffffffffffffffffffffffffffffffffffff16600073ffffffffffffffffffffffffffffffffffffffff167fddf252ad1be2c89b69c2b068fc378daa952ba7f163c4a11628f55a4df523b3ef83604051611d299190612536565b60405180910390a3611d3d60008383611566565b5050565b505050565b600081359050611d5581612cc7565b92915050565b600081359050611d6a81612cde565b92915050565b600081359050611d7f81612cf5565b92915050565b600081359050611d9481612d0c565b92915050565b600060208284031215611db057611daf61287c565b5b6000611dbe84828501611d46565b91505092915050565b60008060408385031215611dde57611ddd61287c565b5b6000611dec85828601611d46565b9250506020611dfd85828601611d46565b9150509250929050565b600080600060608486031215611e2057611e1f61287c565b5b6000611e2e86828701611d46565b9350506020611e3f86828701611d46565b9250506040611e5086828701611d85565b9150509250925092565b60008060408385031215611e7157611e7061287c565b5b6000611e7f85828601611d46565b9250506020611e9085828601611d85565b9150509250929050565b600060208284031215611eb057611eaf61287c565b5b6000611ebe84828501611d5b565b91505092915050565b60008060408385031215611ede57611edd61287c565b5b6000611eec85828601611d5b565b9250506020611efd85828601611d46565b9150509250929050565b60008060408385031215611f1e57611f1d61287c565b5b6000611f2c85828601611d5b565b9250506020611f3d85828601611d85565b9150509250929050565b600060208284031215611f5d57611f5c61287c565b5b6000611f6b84828501611d70565b91505092915050565b600060208284031215611f8a57611f8961287c565b5b6000611f9884828501611d85565b91505092915050565b611faa81612677565b82525050565b611fb981612689565b82525050565b611fc881612695565b82525050565b6000611fd98261256c565b611fe38185612577565b9350611ff3818560208601612702565b611ffc81612881565b840191505092915050565b60006120128261256c565b61201c8185612588565b935061202c818560208601612702565b80840191505092915050565b6000612045602083612577565b915061205082612892565b602082019050919050565b6000612068602383612577565b9150612073826128bb565b604082019050919050565b600061208b602283612577565b91506120968261290a565b604082019050919050565b60006120ae602283612577565b91506120b982612959565b604082019050919050565b60006120d1601d83612577565b91506120dc826129a8565b602082019050919050565b60006120f4602683612577565b91506120ff826129d1565b604082019050919050565b6000612117601083612577565b915061212282612a20565b602082019050919050565b600061213a602183612577565b915061214582612a49565b604082019050919050565b600061215d602583612577565b915061216882612a98565b604082019050919050565b6000612180601983612577565b915061218b82612ae7565b602082019050919050565b60006121a3602483612577565b91506121ae82612b10565b604082019050919050565b60006121c6601783612588565b91506121d182612b5f565b601782019050919050565b60006121e9602583612577565b91506121f482612b88565b604082019050919050565b600061220c601183612588565b915061221782612bd7565b601182019050919050565b600061222f602f83612577565b915061223a82612c00565b604082019050919050565b6000612252601f83612577565b915061225d82612c4f565b602082019050919050565b6000612275602a83612577565b915061228082612c78565b604082019050919050565b612294816126eb565b82525050565b6122a3816126f5565b82525050565b60006122b4826121b9565b91506122c08285612007565b91506122cb826121ff565b91506122d78284612007565b91508190509392505050565b60006020820190506122f86000830184611fa1565b92915050565b60006020820190506123136000830184611fb0565b92915050565b600060208201905061232e6000830184611fbf565b92915050565b6000602082019050818103600083015261234e8184611fce565b905092915050565b6000602082019050818103600083015261236f81612038565b9050919050565b6000602082019050818103600083015261238f8161205b565b9050919050565b600060208201905081810360008301526123af8161207e565b9050919050565b600060208201905081810360008301526123cf816120a1565b9050919050565b600060208201905081810360008301526123ef816120c4565b9050919050565b6000602082019050818103600083015261240f816120e7565b9050919050565b6000602082019050818103600083015261242f8161210a565b9050919050565b6000602082019050818103600083015261244f8161212d565b9050919050565b6000602082019050818103600083015261246f81612150565b9050919050565b6000602082019050818103600083015261248f81612173565b9050919050565b600060208201905081810360008301526124af81612196565b9050919050565b600060208201905081810360008301526124cf816121dc565b9050919050565b600060208201905081810360008301526124ef81612222565b9050919050565b6000602082019050818103600083015261250f81612245565b9050919050565b6000602082019050818103600083015261252f81612268565b9050919050565b600060208201905061254b600083018461228b565b92915050565b6000602082019050612566600083018461229a565b92915050565b600081519050919050565b600082825260208201905092915050565b600081905092915050565b600061259e826126eb565b91506125a9836126eb565b9250827fffffffffffffffffffffffffffffffffffffffffffffffffffffffffffffffff038211156125de576125dd612791565b5b828201905092915050565b60006125f4826126eb565b91506125ff836126eb565b9250817fffffffffffffffffffffffffffffffffffffffffffffffffffffffffffffffff048311821515161561263857612637612791565b5b828202905092915050565b600061264e826126eb565b9150612659836126eb565b92508282101561266c5761266b612791565b5b828203905092915050565b6000612682826126cb565b9050919050565b60008115159050919050565b6000819050919050565b60007fffffffff0000000000000000000000000000000000000000000000000000000082169050919050565b600073ffffffffffffffffffffffffffffffffffffffff82169050919050565b6000819050919050565b600060ff82169050919050565b60005b83811015612720578082015181840152602081019050612705565b8381111561272f576000848401525b50505050565b6000612740826126eb565b9150600082141561275457612753612791565b5b600182039050919050565b6000600282049050600182168061277757607f821691505b6020821081141561278b5761278a6127c0565b5b50919050565b7f4e487b7100000000000000000000000000000000000000000000000000000000600052601160045260246000fd5b7f4e487b7100000000000000000000000000000000000000000000000000000000600052602260045260246000fd5b7f4e487b7100000000000000000000000000000000000000000000000000000000600052603160045260246000fd5b7f4e487b7100000000000000000000000000000000000000000000000000000000600052603260045260246000fd5b7f4e487b7100000000000000000000000000000000000000000000000000000000600052604160045260246000fd5b600080fd5b6000601f19601f8301169050919050565b7f537472696e67733a20686578206c656e67746820696e73756666696369656e74600082015250565b7f45524332303a207472616e7366657220746f20746865207a65726f206164647260008201527f6573730000000000000000000000000000000000000000000000000000000000602082015250565b7f45524332303a206275726e20616d6f756e7420657863656564732062616c616e60008201527f6365000000000000000000000000000000000000000000000000000000000000602082015250565b7f45524332303a20617070726f766520746f20746865207a65726f20616464726560008201527f7373000000000000000000000000000000000000000000000000000000000000602082015250565b7f45524332303a20696e73756666696369656e7420616c6c6f77616e6365000000600082015250565b7f45524332303a207472616e7366657220616d6f756e742065786365656473206260008201527f616c616e63650000000000000000000000000000000000000000000000000000602082015250565b7f5061757361626c653a2070617573656400000000000000000000000000000000600082015250565b7f45524332303a206275726e2066726f6d20746865207a65726f2061646472657360008201527f7300000000000000000000000000000000000000000000000000000000000000602082015250565b7f45524332303a207472616e736665722066726f6d20746865207a65726f20616460008201527f6472657373000000000000000000000000000000000000000000000000000000602082015250565b7f45524332304361707065643a2063617020657863656564656400000000000000600082015250565b7f45524332303a20617070726f76652066726f6d20746865207a65726f2061646460008201527f7265737300000000000000000000000000000000000000000000000000000000602082015250565b7f416363657373436f6e74726f6c3a206163636f756e7420000000000000000000600082015250565b7f45524332303a2064656372656173656420616c6c6f77616e63652062656c6f7760008201527f207a65726f000000000000000000000000000000000000000000000000000000602082015250565b7f206973206d697373696e6720726f6c6520000000000000000000000000000000600082015250565b7f416363657373436f6e74726f6c3a2063616e206f6e6c792072656e6f756e636560008201527f20726f6c657320666f722073656c660000000000000000000000000000000000602082015250565b7f45524332303a206d696e7420746f20746865207a65726f206164647265737300600082015250565b7f45524332305061757361626c653a20746f6b656e207472616e7366657220776860008201527f696c652070617573656400000000000000000000000000000000000000000000602082015250565b612cd081612677565b8114612cdb57600080fd5b50565b612ce781612695565b8114612cf257600080fd5b50565b612cfe8161269f565b8114612d0957600080fd5b50565b612d15816126eb565b8114612d2057600080fd5b5056fea2646970667358221220edcb3241b89a7ed3ec527b5046c03aa4e3135261fcdd3db41cbc33cfff78f5eb64736f6c63430008070033",
  "immutableReferences": {
    "1363": [
      {
        "length": 32,
        "start": 1824
      }
    ]
  },
  "source": "// SPDX-License-Identifier: MIT\npragma solidity ^0.8.0;\n\nimport \"@openzeppelin/contracts/token/ERC20/extensions/ERC20Burnable.sol\";\nimport \"@openzeppelin/contracts/token/ERC20/extensions/ERC20Pausable.sol\";\nimport \"@openzeppelin/contracts/token/ERC20/extensions/ERC20Capped.sol\";\nimport \"@openzeppelin/contracts/access/AccessControlEnumerable.sol\";\n\ncontract LuckyGuessToken is AccessControlEnumerable, ERC20Burnable, ERC20Pausable, ERC20Capped {\n\n    bytes32 public constant MINTER_ROLE = keccak256(\"MINTER_ROLE\");\n\n    constructor() ERC20(\"LuckyGuessToken\", \"LGT\") ERC20Capped(1000000 * 10**decimals()) {\n        _setupRole(DEFAULT_ADMIN_ROLE, msg.sender);\n        _setupRole(MINTER_ROLE, msg.sender);\n    }\n\n    function mint(address to, uint256 amount) public onlyRole(MINTER_ROLE) {\n        _mint(to, amount);\n    }\n\n    function _mint(address account, uint256 amount) internal override(ERC20, ERC20Capped) {\n        super._mint(account, amount);\n    }\n\n    function _beforeTokenTransfer(address from, address to, uint256 amount)\n        internal\n        whenNotPaused\n        override(ERC20, ERC20Pausable)\n    {\n        super._beforeTokenTransfer(from, to, amount);\n    }\n}\n",
  "sourcePath": "/Users/dennis/Code/number-guesser/contracts/src/token.sol",
  "compiler": {
    "name": "solc",
    "version": "0.8.7+commit.e28d00a7.Emscripten.clang"
  },
  "schemaVersion": "3.4.13",
  "updatedAt": "2023-03-19T10:57:48.170Z",
  "devdoc": {
    "kind": "dev",
    "methods": {
      "allowance(address,address)": {
        "details": "See {IERC20-allowance}."
      },
      "approve(address,uint256)": {
        "details": "See {IERC20-approve}. NOTE: If `amount` is the maximum `uint256`, the allowance is not updated on `transferFrom`. This is semantically equivalent to an infinite approval. Requirements: - `spender` cannot be the zero address."
      },
      "balanceOf(address)": {
        "details": "See {IERC20-balanceOf}."
      },
      "burn(uint256)": {
        "details": "Destroys `amount` tokens from the caller. See {ERC20-_burn}."
      },
      "burnFrom(address,uint256)": {
        "details": "Destroys `amount` tokens from `account`, deducting from the caller's allowance. See {ERC20-_burn} and {ERC20-allowance}. Requirements: - the caller must have allowance for ``accounts``'s tokens of at least `amount`."
      },
      "cap()": {
        "details": "Returns the cap on the token's total supply."
      },
      "decimals()": {
        "details": "Returns the number of decimals used to get its user representation. For example, if `decimals` equals `2`, a balance of `505` tokens should be displayed to a user as `5.05` (`505 / 10 ** 2`). Tokens usually opt for a value of 18, imitating the relationship between Ether and Wei. This is the value {ERC20} uses, unless this function is overridden; NOTE: This information is only used for _display_ purposes: it in no way affects any of the arithmetic of the contract, including {IERC20-balanceOf} and {IERC20-transfer}."
      },
      "decreaseAllowance(address,uint256)": {
        "details": "Atomically decreases the allowance granted to `spender` by the caller. This is an alternative to {approve} that can be used as a mitigation for problems described in {IERC20-approve}. Emits an {Approval} event indicating the updated allowance. Requirements: - `spender` cannot be the zero address. - `spender` must have allowance for the caller of at least `subtractedValue`."
      },
      "getRoleAdmin(bytes32)": {
        "details": "Returns the admin role that controls `role`. See {grantRole} and {revokeRole}. To change a role's admin, use {_setRoleAdmin}."
      },
      "getRoleMember(bytes32,uint256)": {
        "details": "Returns one of the accounts that have `role`. `index` must be a value between 0 and {getRoleMemberCount}, non-inclusive. Role bearers are not sorted in any particular way, and their ordering may change at any point. WARNING: When using {getRoleMember} and {getRoleMemberCount}, make sure you perform all queries on the same block. See the following https://forum.openzeppelin.com/t/iterating-over-elements-on-enumerableset-in-openzeppelin-contracts/2296[forum post] for more information."
      },
      "getRoleMemberCount(bytes32)": {
        "details": "Returns the number of accounts that have `role`. Can be used together with {getRoleMember} to enumerate all bearers of a role."
      },
      "grantRole(bytes32,address)": {
        "details": "Grants `role` to `account`. If `account` had not been already granted `role`, emits a {RoleGranted} event. Requirements: - the caller must have ``role``'s admin role. May emit a {RoleGranted} event."
      },
      "hasRole(bytes32,address)": {
        "details": "Returns `true` if `account` has been granted `role`."
      },
      "increaseAllowance(address,uint256)": {
        "details": "Atomically increases the allowance granted to `spender` by the caller. This is an alternative to {approve} that can be used as a mitigation for problems described in {IERC20-approve}. Emits an {Approval} event indicating the updated allowance. Requirements: - `spender` cannot be the zero address."
      },
      "name()": {
        "details": "Returns the name of the token."
      },
      "paused()": {
        "details": "Returns true if the contract is paused, and false otherwise."
      },
      "renounceRole(bytes32,address)": {
        "details": "Revokes `role` from the calling account. Roles are often managed via {grantRole} and {revokeRole}: this function's purpose is to provide a mechanism for accounts to lose their privileges if they are compromised (such as when a trusted device is misplaced). If the calling account had been revoked `role`, emits a {RoleRevoked} event. Requirements: - the caller must be `account`. May emit a {RoleRevoked} event."
      },
      "revokeRole(bytes32,address)": {
        "details": "Revokes `role` from `account`. If `account` had been granted `role`, emits a {RoleRevoked} event. Requirements: - the caller must have ``role``'s admin role. May emit a {RoleRevoked} event."
      },
      "supportsInterface(bytes4)": {
        "details": "See {IERC165-supportsInterface}."
      },
      "symbol()": {
        "details": "Returns the symbol of the token, usually a shorter version of the name."
      },
      "totalSupply()": {
        "details": "See {IERC20-totalSupply}."
      },
      "transfer(address,uint256)": {
        "details": "See {IERC20-transfer}. Requirements: - `to` cannot be the zero address. - the caller must have a balance of at least `amount`."
      },
      "transferFrom(address,address,uint256)": {
        "details": "See {IERC20-transferFrom}. Emits an {Approval} event indicating the updated allowance. This is not required by the EIP. See the note at the beginning of {ERC20}. NOTE: Does not update the allowance if the current allowance is the maximum `uint256`. Requirements: - `from` and `to` cannot be the zero address. - `from` must have a balance of at least `amount`. - the caller must have allowance for ``from``'s tokens of at least `amount`."
      }
    },
    "version": 1
  },
  "userdoc": {
    "kind": "user",
    "methods": {},
    "version": 1
  }
}